:020000040800F2
:1000000038110024AD0200083F390008CB33000846
:100010003D390008BF080008054C0008000000003A
:10002000000000000000000000000000853B000808
:10003000230A000800000000413900089D3D000827
:10004000CB020008CB020008CB020008CB0200085C
:10005000CB020008CB020008CB020008CB0200084C
:10006000CB0200083B0A0008CB020008CB020008C4
:10007000CB020008CB020008CB020008CB0200082C
:10008000CB020008CB020008CB020008CB0200081C
:10009000CB020008CB020008CB020008CB0200080C
:1000A000CB020008CB020008CB020008CB020008FC
:1000B000CB020008CB020008CB020008CB020008EC
:1000C000CB020008CB020008CB020008CB020008DC
:1000D000CB020008CB020008CB020008CB020008CC
:1000E000250A0008CB02000800000000CB0200082F
:1000F000CB020008CB020008CB020008CB020008AC
:10010000CB020008CB020008CB020008CB0200089B
:10011000413F0008853F0008CB020008CB020008E1
:10012000CB020008CB020008CB020008CB0200087B
:10013000CB020008CB020008CB020008CB0200086B
:1001400000000000000000000000000000000000AF
:10015000CB020008CB020008CB020008CB0200084B
:10016000CB020008CB020008CB020008CB0200083B
:10017000CB020008CB020008CB020008CB0200082B
:10018000CB020008CB020008CB020008CB0200081B
:10019000CB020008CB020008CB020008CB0200080B
:1001A000CB020008CB020008CB020008CB020008FB
:1001B000CB020008CB020008CB020008CB020008EB
:1001C000CB020008CB020008CB020008CB020008DB
:1001D000CB020008CB020008CB020008CB020008CB
:1001E000CB020008CB020008CB020008CB020008BB
:1001F000CB020008CB020008CB020008CB020008AB
:10020000CB020008CB020008CB020008CB0200089A
:10021000CB020008CB020008CB020008CB0200088A
:10022000CB020008CB020008CB020008000000004F
:10023000CB020008CB02000800000000CB0200083F
:10024000CB020008CB020008CB020008CB0200085A
:10025000CB020008CB020008CB020008CB0200084A
:10026000CB020008CB020008CB020008CB0200083A
:10027000CB020008CB020008CB02000800000000FF
:10028000CB020008CB020008CB02000800000000EF
:1002900000000000CB020008DFF80CD000F04CFAA0
:1002A00000480047E55700083811002407488047F8
:1002B0000748804707480047FEE7FEE7FEE7FEE7FE
:1002C000FEE7FEE7FEE7FEE7FEE7FEE7450A000879
:1002D000493E0008990200082DE9F05F054600201C
:1002E00092469B4688460646814640241BE02846A7
:1002F00041464746224600F057F853465A46C01A30
:10030000914110D311461846224600F03EF82D1AAE
:1003100067EB01084F4622460120002100F035F826
:1003200017EB00094E41201EA4F10104DFDC484612
:1003300031462A464346BDE8F09FD2B201E000F8BC
:10034000012B491EFBD270470022F6E710B5134679
:100350000A4604461946FFF7F0FF204610BD30B5A7
:100360000B46014600202022012409E021FA02F573
:100370009D4205D303FA02F5491B04FA02F528440D
:10038000151EA2F10102F1DC30BD202A04DB203A67
:1003900000FA02F1002070479140C2F1200320FAD8
:1003A00003F3194390407047202A04DB203A21FAD6
:1003B00002F00021704721FA02F3D040C2F120027E
:1003C00091400843194670472DE9FE4F804681EA67
:1003D0000300C00F0C46009021F0004123F00045BF
:1003E000B8EB0200A94105D24046214690461C4682
:1003F0000B46024623F00040104347D0270DC7F3B9
:100400000A00C3F30A510290401A019040286BDAA7
:10041000C3F3130040F4801B0098924620B10023E0
:10042000D2EB030A63EB0B0B01985946C0F1400273
:100430005046FFF7AAFF06460D4650465946019A18
:1004400000F08CF910EB08006141002487EA11529A
:1004500084EAE7731A4340D0009A62B3019A012AF2
:100460004FEA075215DC001B61EB02014FF000421E
:1004700002EA0752CDE90042001C41F580113246E4
:100480002B4600F08CF903B0BDE8F08F40462146C2
:10049000F9E7001B61EB0201001C41F58013001815
:1004A0005B412018A2F5001747EB030140EAD57025
:1004B000B6196D4111E06D084FEA360645EAC07580
:1004C0004FEA0752001B61EB0201001C41F580114D
:1004D00049084FEA30000019514132462B4603B01B
:1004E000BDE8F04F00F04CB9009801224000002315
:1004F000D0EB020263EBE073009821464FEAE07410
:10050000B8EB000061EB0401E9E783F000435BE72F
:1005100081F0004158E72DE9FE4F81EA030404F021
:10052000004421F0004100944FF0000B23F0004301
:1005300050EA01045ED052EA03045BD0C3F30A54CC
:10054000C1F30A552C44A4F2F3340194A0FB0254E5
:10055000C1F3130141F48011C3F3130343F4801377
:1005600001FB024400FB034E840A970A44EA8154CB
:1005700047EA8357A4FB076802958D0A05FB0785A8
:100580004FEA932C04FB0C542705029D4FEA0658B2
:1005900047EA1637B5EB08056EEB070C870E920E8F
:1005A00047EA811742EA8312A7FB0201B6EB0B016F
:1005B00064EB00042B0D43EA0C335E1844EB1C5033
:1005C000DA465146E7FB0201C5F313044FEA0B3349
:1005D00043EA14534FEA0432019C43EA0603A4F1B0
:1005E0000C040294009CCDE900B400F0D8F803B0EC
:1005F000BDE8F08F00200146F9E72DE9F04D81EAD2
:10060000030404F0004B21F0004514464FF0000AAB
:1006100023F0004150EA050220D054EA01021DD027
:10062000C5F30A570246C5F31303C1F31300C1F320
:100630000A5640F4801543F48013A7EB0608101BFC
:10064000D64608F2FD3873EB050002D308F1010825
:1006500001E092185B41B8F1000F03DA0020014677
:10066000BDE8F08D00204FF48011064684460EE070
:10067000171B73EB050705D3121B63EB050306433A
:100680004CEA010C49084FEA300092185B4150EAED
:100690000107EDD152EA030012D082EA040083EA96
:1006A0000501084305D0101BAB4106D201220023EF
:1006B00006E000224FF0004302E06FF00102531009
:1006C0001AEB06004CEB085110EB0A0041EB0B0152
:1006D000BDE8F04D00F054B8C1F30A52C1F3130164
:1006E00040F2FF3341F480119A4202DA00200146C1
:1006F000704740F233439A42A2F2334202DC524244
:10070000FFF752BEFFF741BE30B5041E71F1000481
:1007100004DB4FF00044404264EB0101141E73F10E
:10072000000405DB1C464FF00043524263EB040318
:10073000994208BF904230BD064C074D06E0E06884
:1007400040F0010394E8070098471034AC42F6D318
:10075000FFF7A6FD3C5A00085C5A0008202A06DB79
:10076000CB17203A41FA02F043EAE07306E041FA7F
:1007700002F3D040C2F1200291400843194670476D
:1007800010B5141E73F1000408DA401C41F1000199
:1007900092185B411A4301D120F0010010BD2DE9F0
:1007A000F04D92469B4611B1B1FA81F202E0B0FAE7
:1007B00080F220329046FFF7E8FD04460F4640EAFB
:1007C0000A0041EA0B0153465A46084313D011462A
:1007D00053EA010019D0C8F140025046FFF7E4FD8A
:1007E00005460E46504659464246FFF7CEFD0843A1
:1007F00005D0012004E020463946BDE8F08D0020F8
:10080000054346EAE0762C4337430A986305E40A39
:10081000A0EB08000022FD0A44EA47540A3002D542
:1008200000200146E9E7010510196941DDE90845A5
:1008300000196941BDE8F04DA2E770B50E461C46AF
:1008400081B21546002004F041FAB1B2012004F053
:100850003DFAA9B2022004F039FAA1B2BDE8704015
:10086000032004F033BA70B50C461D461646014607
:10087000002004F093FA0120214604F08FFA0220B0
:10088000314604F08BFA2946BDE87040032004F09D
:1008900085BA70B50E461C4681B21546002004F09C
:1008A00043FAB1B2012004F03FFAA9B2022004F0E9
:1008B0003BFAA1B2BDE87040032004F035BAFEE770
:1008C00010B5044602F04AFEE1094020C1F344019C
:1008D00040EA410002F008FE02F096FEE0B202F0AB
:1008E00003FE02F091FEBDE8104002F061BE000080
:1008F000044B4FF4905202EB00220A43195490B279
:10090000FFF7DEBF4B000024C10406D50621044AD0
:1009100001EB102101F007015054FFF7D1BF000097
:100920004B0000240D4A01280AD002280CD00328CD
:100930000ED0042810D1505C40F4B850FFF7E4BF4B
:10094000505C40F4A050F9E7505C40F4A850F5E743
:10095000505C40F4B050F1E7704700002C5A00089A
:1009600070B5002402F0FAFD4F2002F0BDFD02F048
:100970004BFE002002F07EFD054602F019FE443DCC
:100980001C2D2CD2DFE805F02B0E10122B2B2B2B5D
:100990001416181A2B2B2B2B1C1E20222B2B2B2B27
:1009A0002426282A01241AE0022418E0032416E051
:1009B000042414E0052412E0062410E007240EE0CD
:1009C00008240CE009240AE00A2408E00B2406E0CD
:1009D0000C2404E00D2402E00E2400E00F24204645
:1009E00070BD10B5002400212046FFF781FF641C74
:1009F000E4B2062CF7D340F20340FFF785FF012154
:100A00000846FFF78FFF02210846FFF78BFF0321FF
:100A10000846FFF787FF0421BDE810400846FFF7AE
:100A200081BF70474FF4805010B500F07FFBBDE8E8
:100A300010404FF4005000F079BB082000F076BB66
:100A400072B6FEE7054805490839026842F002021D
:100A5000026008688004FCD5704700000C4802580A
:100A60002DE9F84F044600F09BFC00903CB194F84F
:100A70003500022806D0802161650020E4E00120D5
:100A8000BDE8F88FC74DC74EC649183520683036C7
:100A9000DFF81483DFF814938842DFF814A3DFF83B
:100AA00014B32ED0A8422CD0B0422AD0404528D032
:100AB000484526D0504524D0584522D0BD4A18324A
:100AC00090421ED0BC4A90421BD0BB4A1832904282
:100AD00017D0B94A3032904213D0B74A48329042C8
:100AE0000FD0B54A603290420BD0B34A7832904270
:100AF00007D0B14A9032904203D0AF4AA832904218
:100B000009D1026822F01E0202602068426922F0C8
:100B10008002426103E0026822F00E020260276850
:100B20008F4238464DD0A8424BD0B04249D04045C4
:100B300047D0484545D0504543D0584541D09D4ABF
:100B4000183290423DD09C4A90423AD09A4A18328C
:100B5000904236D0984A3032904232D0964A48324B
:100B600090422ED0944A603290422AD0924A7832F3
:100B7000904226D0904A9032904222D08E4AA8329B
:100B800090421ED08D4A90421BD08C4A1432904223
:100B900017D08A4A2832904213D0884A3C32904279
:100BA0000FD0864A503290420BD0844A6432904231
:100BB00007D0824A7832904203D0804A8C329742E2
:100BC00004D1206E026822F48072026075492068A8
:100BD000884228D0A84226D0B04224D0404522D016
:100BE000484520D050451ED058451CD07149183179
:100BF000884218D07049884215D06F491831884210
:100C000011D06D49303188420DD06B49483188424E
:100C100009D069496031884205D0674978318842F6
:100C200001D065499031016821F0010101600EE0B9
:100C300000F0B6FB0099401A052808D92022626509
:100C40000321002084F8351084F8340017E7386851
:100C5000C007EDD1534A0121206890422ED0A8420E
:100C60002CD0B0422AD0404528D0484526D0504507
:100C700024D0584522D04F4B183398421ED04E4BAB
:100C800098421BD04C4B1833984217D04A4B303304
:100C9000984213D0484B483398420FD0464B6033AC
:100CA00098420BD0444B7833984207D0424B903354
:100CB000984203D0404BA833984208D194F85C7016
:100CC0003F23A06D07F01F07BB40836007E094F847
:100CD0005C30A06D03F01F0301FA03F3436020684A
:100CE00090424DD0A8424BD0B04249D0404547D069
:100CF000484545D0504543D0584541D02D4A18323B
:100D000090423DD02C4A90423AD02B4A1832904221
:100D100036D0294A3032904232D0274A4832904267
:100D20002ED0254A603290422AD0234A783290420F
:100D300026D0214A9032904222D01F4AA8329042B7
:100D40001ED01E4A90421BD01C4A1432904217D02B
:100D50001A4A2832904213D0184A3C3290420FD09F
:100D6000164A503290420BD0144A6432904207D057
:100D7000124A7832904203D0104A8C3290420BD102
:100D8000D4E919024260E06E30B1026822F4807248
:100D90000260D4E91C024260002084F8351084F817
:100DA00034006DE61000024058000240700002401E
:100DB00088000240A000024010040240085402587B
:100DC0002DE9F05F28B190F83510022904D0802178
:100DD00041650120BDE8F09F904C904B0168183CA4
:100DE00018338E4ADFF83C92A1428D4CDFF838E28E
:100DF0008E4FDFF83CB2DFF83CA28F4D8F4E31D0E2
:100E000091422FD099422DD0A1422BD0494529D0D3
:100E1000714527D0B94225D0DFF810C20CF1180C6B
:100E200061451FD0DFF808C2ACF1600C614519D0F4
:100E3000DFF8FCC1ACF1480C614513D0DFF8F0C11C
:100E4000ACF1300C61450DD0DFF8E4C1ACF1180C09
:100E5000614507D0594505D0514503D0A94201D07D
:100E6000B1422CD1DFF8B4C14FF0040880F83580CE
:100E7000ACF1180C61451DD091421BD0994219D09C
:100E8000A14217D0494515D0714513D0B94211D0B0
:100E90006648183081420DD065486038814209D0DB
:100EA00063484838814205D061483038814201D0DA
:100EB0005F481838086820F001000860ABE0D1F8FE
:100EC00000C02CF00E08DFF854C1C1F80080ACF16E
:100ED000180C0168614527D0914225D0994223D052
:100EE000A14221D049451FD071451DD0B9421BD028
:100EF000DFF838C10CF1180C614515D0DFF830C1AE
:100F0000ACF1600C61450FD0DFF824C1ACF1480CA6
:100F1000614509D0DFF818C1ACF1300C614503D050
:100F2000DFF80CC1ACF1180CD1F800C02CF0010CAA
:100F3000C1F800C0DFF8E4804FF0010C0168A8F1AF
:100F40001808414546D0914244D0994242D0A1422E
:100F500040D049453ED071453CD0B9423AD0334AA1
:100F60001832914236D0324A603A914232D0304AF9
:100F7000483A91422ED02E4A303A91422AD02C4AF9
:100F8000183A914226D0594524D0514522D0A94241
:100F900020D0B1421ED02A4A91421BD0284A143296
:100FA000914217D0264A2832914213D0244A3C322B
:100FB00091420FD0224A503291420BD0204A6432E3
:100FC000914207D01E4A7832914203D01C4A8C329B
:100FD000914218D1016E0A6822F480720A6090F87A
:100FE0005C20816D02F01F020CFA02F24A60D0E927
:100FF00019124A60C16E31B10A6822F480720A6027
:10100000D0E91C124A600022016D80F835C080F8DA
:10101000342001B188470020DCE6000028000240AF
:10102000580002407000024088000240A0000240C8
:101030007004024088040240A0040240B804024048
:10104000085402582DE9F0410446322004F09AFB7E
:10105000224F002601254FF480518C4210D1384692
:1010600000F086F900281ED14021384600F085F9AD
:101070001B4C2946207808B11AA026E01CA029E0C4
:10108000082C12D04FF40056B4420CD11BA003F030
:10109000C9FE1C480580FFF763FC1B494FF0B042B6
:1010A0000870C2F88860BDE8F0811848082100F097
:1010B0005FF90028F7D18021384600F05EF9144C22
:1010C0004FF00101207820B112A002F0C3FD26707C
:1010D000E9E713A002F0BEFD2570E4E7000802581E
:1010E000340000246C6564342E76616C3D30000061
:1010F0006C6564342E76616C3D31000043483435B4
:10110000350D0A00480000244A000024001002584F
:10111000350000246C6564352E76616C3D3000002E
:101120006C6564352E76616C3D3100004FF0B04146
:1011300010B5D1F88820024203D0C1F88800FFF72B
:1011400081FF10BD2DE9F84F03247D4D00234FF0A2
:1011500001094FF0B04B4FF00F0AE9E009FA03F72D
:101160003A4076D00E7906F00306012E01D0022E09
:1011700018D1D0F808C04FEA430ECE6804FA0EF832
:101180002CEA080C06FA0EF646EA0C068660D0F841
:1011900004C00E792CEA070CC6F300169E4046EAFE
:1011A0000C0646600E79F643B6070BD0C6684FEAC8
:1011B00043088F6804FA08FC26EA0C0607FA08F7C9
:1011C0003743C7600E7906F00306022E12D1DE08FF
:1011D0000F694FEA437C00EB8606B646366A4FEA53
:1011E000DC6C0AFA0CF807FA0CF726EA0806374313
:1011F000CEF820700F7906684FEA430807F003071E
:1012000004FA08FC07FA08F726EA0C0637430760D9
:101210004E6816F4403F1CD04A4E376847F002072C
:10122000376036689F0706F00206009623F0030633
:1012300006F1B046B6463F0FD6F80864DFF80881DD
:101240000AFA07FC404526EA0C0603D14FF0000CD1
:1012500041E06CE0DFF8F4C0604502D14FF0010CD2
:1012600039E0DFF8ECC0604502D14FF0020C32E00B
:10127000DFF8E0C0604502D14FF0030C2BE0DFF84F
:10128000D8C0604502D14FF0040C24E0DFF8CCC098
:10129000604502D14FF0050C1DE0DFF8C4C0604589
:1012A00002D14FF0060C16E0DFF8B8C0604502D15D
:1012B0004FF0070C0FE0DFF8B0C0604502D14FF0EF
:1012C000080C08E0DFF8A4C0604502D14FF0090C1B
:1012D00001E04FF00A0C0CFA07FC4CEA060CCEF8C1
:1012E00008C44F68DBF80060FF0226EA020600D55A
:1012F00016435F46CBF80060D1F804C0DBF8046009
:101300005FEA8C2C26EA020600D516437E606E68E2
:101310004F6826EA0206BF0300D516436E602E68AA
:101320004F6826EA0206FF0300D516432E605B1CB9
:101330000A6832FA03F67FF411AFBDE8F88F0000B7
:1013400080000058F444025800000258000402587B
:1013500000080258000C02580010025800140258ED
:1013600000180258001C025800200258002402589D
:101370000069084000D001207047426921EA020359
:101380000A4043EA0241816170470AB181617047B6
:101390000904FBE701480068000C70470010005C7E
:1013A00001488068704700000C00002402488168F2
:1013B00002781144816070470C000024032010B5AE
:1013C00000F0D4F801F0AEF80F4A10491468136821
:1013D000C4F3032203F00F038A5CC95C02F01F020E
:1013E00001F01F01D0400A4A20FA01F111600949B9
:1013F00008600F2000F010F808B1012010BD00F0C7
:1014000079F8002010BD0000184402581C5A00084A
:101410001C0000241800002470B50D4D04462878E7
:10142000A0B14FF47A71B1FBF0F00A490968B1FB41
:10143000F0F001F0E9FB48B9102C07D20022214658
:10144000501E00F073F800206C6070BD012070BD6C
:101450000C00002418000024154BF0B5083B42781E
:1014600013491A600B680A1F23F001030B604368DD
:101470001360057BC67A827A437B2D07847B45EA1D
:101480000665C77B90F809C0067A90F800E045EA47
:10149000C24040EA834040EA444040EA074040EA14
:1014A0000C2040EA460040EA0E000860F0BD000053
:1014B000A0ED00E0BFF35F8F044800210368034AFA
:1014C00023F48033036070321160704724ED00E034
:1014D000074A40F00100064970321060086840F485
:1014E00080300860BFF34F8FBFF36F8F70470000ED
:1014F00024ED00E0054808B5016841F002010160F3
:10150000006800F00200009008BD0000F44402589A
:10151000002809DB410900F01F028900012001F1C8
:10152000E0219040C1F80001704700000E4BF0B47C
:101530001B680D46C3F30223C3F10706042E00D92E
:101540000426191D072901D2002300E0DB1E012417
:1015500004FA06F19C40491E2940641E994014403B
:101560002143F0BC03F080BC0CED00E0064900F024
:10157000070210B54FF6FF040868044B204040EA0C
:1015800002201843086010BD0CED00E00000FA05D1
:10159000134970B50A68D243520705D5096801F0AE
:1015A0000701814213D118E00A6822F007020243C2
:1015B0000A60FFF7F5FE0A4D4FF47A760446083DBF
:1015C00007E000BFFFF7ECFE001BB04201D901208D
:1015D00070BD2868C0438004F4D4002070BD0000B2
:1015E0000C48025810B500F057FF05490968054A34
:1015F000C1F30211515C01F01F01C84010BD000091
:10160000204402581C5A0008494930B5484C0B1D6B
:101610000A68143409681D68246802F00303C5F3DE
:101620000012C1F30531C4F3CC04002914FB02F20B
:1016300000EE102AF8EE400A75D03F4A9FED3D1AA1
:10164000B7EE000A6BB1DFED3D1A012B01D0022B82
:1016500064D002EE101A1168F8EE422A81EEA22A36
:1016600021E0334C283C23689B0612D5344B246878
:1016700001EE901A1168C4F3C104F8EE612AE34048
:1016800001EE903AC1F30801F8EE611A81EEA22A48
:101690000BE001EE901ADFED2B2A00BFF8EE611A85
:1016A000116882EEA12AC1F3080101EE901A1168B7
:1016B000F8EE611A40EE811A71EE800A62EE200A9D
:1016C000C1F3462101EE101AB8EE411A31EE001AAC
:1016D000C0EE811ABCEEE11A80ED001A1168C1F368
:1016E000064101EE101AB8EE411A31EE001AC0EEB2
:1016F000811ABCEEE11A80ED011A1168C1F306618E
:1017000001EE101AB8EE411A31EE000A80EE801A8E
:10171000BCEEC10A80ED020A30BD04E001EE901A71
:10172000DFED092ABAE70021016041608160F3E73B
:101730002844025800000039384402580024744AF2
:101740000090D0030024744C20BCBE4B494930B5F6
:10175000484C0B1D0A681C3409681D68246802F097
:101760000303C5F30022C1F30551C4F3CC040029DF
:1017700014FB02F200EE102AF8EE400A75D03F4A40
:101780009FED3D1AB7EE000A6BB1DFED3D1A012B5C
:1017900001D0022B64D002EE101A1168F8EE422A32
:1017A00081EEA22A21E0334C283C23689B0612D507
:1017B000344B246801EE901A1168C4F3C104F8EEAA
:1017C000612AE34001EE903AC1F30801F8EE611A94
:1017D00081EEA22A0BE001EE901ADFED2B2A00BF6A
:1017E000F8EE611A116882EEA12AC1F3080101EE38
:1017F000901A1168F8EE611A40EE811A71EE800AB3
:1018000062EE200AC1F3462101EE101AB8EE411A29
:1018100031EE001AC0EE811ABCEEE11A80ED001A1A
:101820001168C1F3064101EE101AB8EE411A31EE0B
:10183000001AC0EE811ABCEEE11A80ED011A11689F
:10184000C1F3066101EE101AB8EE411A31EE000A3A
:1018500080EE801ABCEEC10A80ED020A30BD04E0C1
:1018600001EE901ADFED092ABAE70021016041601C
:101870008160F3E7284402580000003940440258D0
:101880000024744A0090D0030024744C20BCBE4B4A
:101890002DE9FE4F0546DFF8E48350F8081B0024CD
:1018A000F64FC943019005F12800264608F12408A7
:1018B000009008011DD4A86E50B1B0F5801F0CD067
:1018C000B0F5001F0ED0B0F5401F1ED001240FE070
:1018D000386840F40030386017E00198022102F0C7
:1018E00031F803E00098022102F0BCF804000CD0AB
:1018F00026462888C043C00523D4A86D05281ED2DB
:10190000DFE800F00C11161B1B00AA6ED8F80010BF
:1019100021F440111143C8F80010EAE7386840F498
:101920000030386009E00198002102F00BF803E074
:101930000098002102F096F8044674B100E00124FA
:1019400026462888C043800528D4E86D80281ED00C
:101950000CDC90B140280ED114E0AA6DD8F800102C
:1019600021F007011143C8F80010EAE7C02813D09E
:10197000B0F5807F10D001240FE0386840F40030CB
:10198000386009E00198002101F0DCFF03E00098D5
:10199000002102F067F804469CB126462888DFF84B
:1019A000DC92C04309F12C0940052CD4D5F8A800DD
:1019B000B0F5800F20D00DDCA0B1B0F5001F0FD125
:1019C00015E0EA6DD8F8001021F4E0711143C8F871
:1019D0000010E3E7B0F5C00F13D0B0F5000F10D042
:1019E00001240FE0386840F40030386009E00198C5
:1019F000002101F0A7FF03E00098002102F032F877
:101A000004467CB126462888C04300052DD4D5F86D
:101A1000AC00B0F1007F21D00EDCA8B1B0F1807F26
:101A200010D116E0D5F8A820D9F8001021F46001F3
:101A30001143C9F80010E6E7B0F1407F13D0B0F1D0
:101A4000806F10D001240FE0386840F40030386017
:101A500009E00198002101F075FF03E000980021E2
:101A600002F000F8044674B126462868C04380019D
:101A70001FD4E86CD8B110280FD0202812D03028FD
:101A800015D0012414E0D5F8AC20D9F8001021F0CD
:101A9000E0611143C9F80010E7E7386840F400300E
:101AA000386004E00198022101F04CFF044674B153
:101AB00026462888C043C0042BD4286EB0F5005FAA
:101AC00020D00DDCA0B1B0F5805F0FD115E06B48E0
:101AD000EA6C2030016821F0300111430160E8E731
:101AE000B0F5405F13D0B0F5804F10D001240FE067
:101AF000386840F40030386009E00198002101F0B6
:101B000021FF03E00098002101F0ACFF04468CB1F6
:101B100026462888C043800429D4686EB0F5403F2B
:101B200023D010DC08B3B0F5803F14D0B0F5003FEF
:101B30000FD115E02A6ED8F8001021F4E0411143CE
:101B4000C8F80010E5E7B0F5802F0ED0B0F5A02F53
:101B50000BD001240AE00198012101F0F3FE03E01B
:101B60000098012101F07EFF044694B126462888A2
:101B7000C04340042AD4D5F8B000B0F1405F23D070
:101B800010DC08B3B0F1805F14D0B0F1005F0FD16A
:101B900015E06A6ED8F8001021F4E0211143C8F86E
:101BA0000010E4E7B0F1804F0ED0B0F1A04F0BD0A1
:101BB00001240AE00198012101F0C4FE03E000982D
:101BC000012101F04FFF044674B126462888C04326
:101BD00000041FD4286FD8B1B0F1805F0ED0B0F1EF
:101BE000005F10D0012414E0D5F8B020D9F800101F
:101BF00021F0E0411143C9F80010E7E7386840F4EC
:101C00000030386004E00198012101F09BFE044699
:101C100074B126462868C043C0011ED4A86CD0B158
:101C200001280ED0022811D0032814D0012413E07B
:101C30002A6FD8F8001021F040511143C8F8001065
:101C4000E8E7386840F40030386004E00198022189
:101C500001F078FE0446ACB126462868DFF81CB0D7
:101C6000C043ABF11C0B400252D40548016841F45B
:101C700080710160FFF794FB824611E02C4402580A
:101C800000480258FA48AA6C016821F00301114388
:101C90000160E2E7FFF784FBA0EB0A00642835D877
:101CA000F4480068C005F5D58CBBDFF8C4A3B5F8CF
:101CB000B4100AF1240ADAF8000001F4407100F4CB
:101CC0004070884211D0DAF80010DAF8002021F4D0
:101CD000407142F48032CAF80020DAF8002022F481
:101CE0008032CAF80020CAF80010D5F8B400B0F568
:101CF000807F1AD1FFF754FB029012E0FFF750FBF0
:101D00000299411A41F2883081420AD903242646B9
:101D10002878DFF85CA3C0430AF1080AC00721D085
:101D20003CE0DAF800008007E8D5D5F8B410C1F33C
:101D30000120032858460DD0016821F47C51016030
:101D4000B5F8B420DAF80010C2F30B021143CAF858
:101D50000010DDE7C84A036802EA111223F47C513F
:101D60001143ECE7E86F182816D005DCA0B108286D
:101D700008D0102804D10AE020280DD028280BD044
:101D800001240AE00198012101F0DCFD03E0009844
:101D9000012101F067FE044664B126462878C0435D
:101DA00080071ED4A86F062819D2DFE800F0160CB1
:101DB00011161616EA6FDAF8001021F038011143F7
:101DC000CAF80010EAE70198012101F0BBFD03E029
:101DD0000098012101F046FE04467CB100E0012498
:101DE00026462878C04340071FD4D5F8940006281B
:101DF00019D2DFE800F0160C11161616AA6FDAF8E1
:101E0000001021F007011143CAF80010E9E701981A
:101E1000012101F097FD03E00098012101F022FE6D
:101E20000446A4B100E0012426462878C043800679
:101E30002BD4D5F89000B0F1405F24D011DC10B362
:101E4000B0F1805F15D0B0F1005F10D116E0D5F889
:101E50009420D9F8001021F007011143C9F80010AF
:101E6000E3E7B0F1804F0ED0B0F1A04F0BD00124CA
:101E70000AE00198002101F065FD03E000980221CD
:101E800001F0F0FD044694B126462878C043400690
:101E90002BD4D5F89C00B0F5406F24D011DC10B3E2
:101EA000B0F5806F15D0B0F5006F10D116E0D5F801
:101EB0009020DAF8001021F0E0411143CAF8001038
:101EC000E3E7B0F5805F0ED0B0F5A05F0BD0012442
:101ED0000AE00198002101F035FD03E0009802219D
:101EE00001F0C0FD044694B126462878C0430006A0
:101EF0002BD4D5F8A000B0F5C04F24D011DC10B31E
:101F0000B0F5005F15D0B0F5804F10D116E0D5F8D0
:101F10009C20D9F8001021F4E0511143C9F80010B9
:101F2000E3E7B0F5004F0ED0B0F5204F0BD0012401
:101F30000AE00198002101F005FD03E0009802216C
:101F400001F090FD044654B126462878C0430007AE
:101F50001ED4D5F88400B0F5805F0AD00FE0D5F824
:101F6000A020D9F8001021F460411143C9F80010F5
:101F7000EBE70098022101F075FD00B10126D5F8CC
:101F80008420DAF8001021F440511143CAF80010FF
:101F90002878C043C00613D4D5F89800B0F5807FE8
:101FA00005D10098022101F05DFD00B10126D5F8B0
:101FB0009820D9F8001021F440711143C9F800109D
:101FC0002868C043000316D4D5F8A40038B1B0F592
:101FD000803F09D0B0F5003F0BD001240AE0019802
:101FE000002101F0AFFC03E00098022101F03AFD6E
:101FF00004468CB126462868C043400322D4D5F855
:102000008800B0F5801F11D0B0F5001F13D0B0F5D7
:10201000401F15D0012414E0D5F8A420D9F80010F1
:1020200021F440311143C9F80010E4E7386840F466
:102030000030386004E00098012101F013FD0446EF
:102040005CB126462868C043C00323D4286DA8B1DC
:10205000B0F5803F17D001241BE0D5F88820DAF8CE
:10206000001021F440111143CAF80010EAE7000003
:102070004C44025800480258CFFFFF00386840F433
:102080000030386004E00198022101F05BFC044656
:10209000E4B126462868C043800005D40098022198
:1020A00001F0E0FC00B101262868C04380031BD486
:1020B000D5F88000B0B1B0F5807F0FD0B0F5007FCB
:1020C00010D0B0F5407F0DD001240CE05A482A6DA5
:1020D000016821F4803111430160DBE7386840F486
:1020E00000303860ECB326462868C043C00207D4ED
:1020F0006A6FD8F8001021F000411143C8F80010B1
:102100002868C043C00008D4D5F8B820DBF8001018
:1021100021F480411143CBF800102868C0438002AD
:1021200007D4EA6ED8F8001021F080711143C8F886
:1021300000102868C04340000CD4DBF8001021F4E4
:102140000041CBF80010DBF80010D5F8BC2011439B
:10215000CBF800102868C04308D437486A6D01687E
:1021600000E018E021F04051114301602868C043AD
:10217000000208D4D5F88C20DAF8001021F44001D0
:102180001143CAF8001028790024C04300F0010070
:1021900020430AD00FE0D5F88020DAF8001021F4AF
:1021A00040711143CAF800109EE70198002101F028
:1021B000C9FB00B106462879C04300F00200204365
:1021C00005D10198012101F0BDFB00B10646287937
:1021D000C04300F00400204305D10198022101F022
:1021E000B1FB00B106462879C04300F00800204347
:1021F00005D10098002101F035FC00B10646287990
:10220000C04300F01000204305D10098012101F0E7
:1022100029FC00B106462879C04300F020000443A1
:1022200004D10098022101F01DFC00B916B1012073
:10223000BDE8FE8F0020FBE74C4402582DE9F05F1B
:1022400004000F467ED0DFF83882D8F8000000F096
:102250000F00B8420CD2D8F8001021F00F0139431A
:10226000C8F80010D8F8000000F00F00B84269D19B
:102270002078844D40070AD52069296801F0700153
:10228000884204D9296821F070010143296020782F
:102290007C4E361D00070AD56069316801F0700177
:1022A000884204D9316821F07001014331602078FF
:1022B000C0060AD5A069316801F4E061884204D9FA
:1022C000316821F4E061014331602078DFF8B4B176
:1022D00080060BF1080B0CD5E1695846DBF80020AD
:1022E00002F07002914204D9026822F070020A439F
:1022F0000260207880070AD5E068296801F00F01A4
:10230000884204D9296821F00F010143296020780F
:10231000C0073ED05B49A2682868183920F4706075
:10232000104328606068022818D0032819D0096873
:10233000012819D0490700294ADADFF848A1AAF193
:10234000080A00E044E0DAF8002022F00702024325
:10235000CAF80020FFF724F8814612E009688903D3
:10236000E9E709688901E6E7C905E4E7FFF718F836
:10237000A0EB090141F28830814202D90320BDE877
:10238000F09F6168DAF8000000F03800B0EBC10F90
:10239000ECD1207880070AD5E068296801F00F01A8
:1023A000884204D2296821F00F0101432960D8F83E
:1023B0000010404601F00F01B9420BD9016821F02D
:1023C0000F0139430160006800F00F00B84201D0EE
:1023D0000120D4E7207840070AD52069296801F058
:1023E0007001884204D2296821F0700101432960FC
:1023F000207800070AD56069316801F070018842D1
:1024000004D2316821F07001014331602078C006A8
:102410000AD5A069316801F4E061884204D23168CC
:1024200021F4E06101433160207880060CD5E16938
:102430005846DBF8002002F07002914204D2026894
:1024400022F070020A43026000F06CF80E492A681C
:102450002B68C2F3032203F00F038A5CC95C02F00D
:102460001F0201F01F01D040084A20FA01F111605B
:102470000749086007480068BDE8F05FFEF7CCBF79
:1024800000200052184402581C5A00081C00002466
:10249000180000241000002430B500F043F80B4A67
:1024A0000B490C4B15681468C5F3032204F00F04A4
:1024B0008A5C095D02F01F0201F01F01D040064A4C
:1024C00020FA01F119601060084630BD1844025826
:1024D0001C5A00081C0000241800002400B5FFF757
:1024E000DBFF05490968054AC1F30211515C01F09F
:1024F0001F01C84000BD00001C4402581C5A0008BF
:1025000000B5FFF7C9FF05490968054AC1F3022173
:10251000515C01F01F01C84000BD00001C4402587E
:102520001C5A0008454970B545480968434B103BA3
:1025300011F0380208D00111082A03D0102A0BD05C
:10254000182A0BD0084670BD19688906FBD5196892
:10255000C1F3C101C84070BD3A4870BD3749374D1D
:1025600018310C1D24350A68096826682D6802F0A8
:10257000030406F00102C1F30511C5F3CC0515FBF8
:1025800002F200EE102AB8EE400AE9B32F4ADFED5E
:102590002E0AB7EE001A6CB1DFED2D1A012C01D016
:1025A000022C43D002EE101A1068F8EE422A81EE97
:1025B000A22A1EE01C68A40611D51B6801EE901A21
:1025C0001168C3F3C103F8EE612AD84001EE900A06
:1025D000C1F30800F8EE611A81EEA22A0BE001EEC9
:1025E000901ADFED1C2A00BFF8EE611A106882EE27
:1025F000A12AC0F3080001EE900AF8EE611A40EE3D
:10260000201A31EE810A00E015E022EE000A10687F
:10261000C0F34620401C00EE900AF8EE600A80EEFF
:10262000201ABCEEC10A10EE100A70BD01EE901A1D
:10263000DFED092AD8E7002070BD000010440258E1
:102640000090D00340787D010000003930440258EA
:102650000024744A0024744C20BCBE4B2DE9F05F6A
:1026600004007DD0FF4F2078FE4D1837DFF8F4933B
:10267000103DC00748D0D9F80000396800F0380094
:10268000102815D0182803D101F0030002280FD01C
:102690006068B0F5803F12D010B1B0F5A02F18D00F
:1026A000286820F480302860286820F4802009E021
:1026B0002868800328D560680028D2D024E02868E4
:1026C00040F480302860606888B1FEF769FE0646F5
:1026D00009E0286840F480202860F0E7FEF760FEFB
:1026E000801B64286FD828688003F7D50CE0FEF7BC
:1026F00057FE064605E000BFFEF752FE801B642829
:10270000F0D828688003F7D4207841F20308D54E2A
:102710000C3E800769D5D9F80000396810F0380000
:102720000ED0182801D188070AD0E06890B3296834
:1027300021F0190101432960FEF732FE824631E0A3
:102740002868400702D5E06800288AD0E168286838
:1027500020F0190008432860FEF722FE824607E0B9
:10276000DFE000BFFEF71CFEA0EB0A000228B9D88C
:1027700028684007F6D500BFFEF70CFE40451BD881
:102780002069402812D0316821F47C3141EA0030C0
:1027900030602AE018E000BFFEF702FEA0EB0A005E
:1027A00002289FD828684007F6D5E5E7306820F46E
:1027B0007C3040F40030EBE7207C316821F0FE41B2
:1027C00041EA0060E4E70DE1286820F0010028609C
:1027D000FEF7E6FD824605E0FEF7E2FDA0EB0A000B
:1027E00002288DD828684007F6D42078C0065DD529
:1027F000D9F80000DFF86CB2396800F03800ABF1AE
:10280000040B082810D0182803D101F00300012878
:102810000AD0E0690028286838D040F0800028609D
:10282000FEF7BEFD824623E02868C00523D5E06997
:10283000802876D11FE0206A202821D0316821F03D
:10284000F84141EA8060306030E000BF94F8201029
:10285000DBF8002022F07C5242EA0161CBF8001044
:1028600024E000BFFEF79CFDA0EB0A00022898D8E8
:102870002868C005F6D5FEF78DFD4045E6D8DAE7B5
:10288000306820F0F84040F08040DCE720F0800025
:102890002860FEF785FD064605E000BFFEF780FDD7
:1028A000801B02289DD82868C005F7D4207800072F
:1028B00029D56C486169643000298046016811D0CF
:1028C00041F001010160FEF76BFD064605E000BF27
:1028D000FEF766FD801B0228C9D8D8F800008007E3
:1028E000F6D510E021F001010160FEF759FD064622
:1028F00005E000BFFEF754FD801B022872D8D8F80F
:1029000000008007F6D42078800623D5A06900282F
:10291000286810D040F480502860FEF741FD06463C
:1029200005E036E1FEF73CFD801B02285AD82868F6
:102930008004F7D50EE020F480502860FEF730FDCB
:10294000064604E0FEF72CFD801B02284AD82868C2
:102950008004F7D4207840074FD5DFF80C81D8F8F1
:10296000001041F48071C8F80010FEF719FD06460A
:1029700005E000BFFEF714FD801B642832D8D8F8AC
:102980000000C005F6D5374EA068603601280AD091
:1029900008B1052813D0306820F00100306030689D
:1029A00020F0040002E0306840F001003060A068D0
:1029B00041F2883A90B1FEF7F3FC80460AE03068B5
:1029C00040F004003060EEE7FEF7EAFCA0EB0801FF
:1029D000514507D830688007F6D50EE0FEF7E0FCD9
:1029E000804607E084E000BFFEF7DAFCA0EB0801B8
:1029F00051457DD830688007F6D4606AB0B3DFF8FF
:102A00006480D9F8001008F120084FF6F87B08F12F
:102A10000409C1F3C2010329A8F1040A69D00228FC
:102A2000286820F08070286003D0FEF7B9FC0446C7
:102A300084E0FEF7B5FC064605E000BFFEF7B0FCFB
:102A4000801B022877D828688001F7D4E26A40F218
:102A5000F331386854F8283F884340EA021018439D
:102A6000386004E01044025800480258B5E0217B69
:102A7000434622894FF4FE0C208A4FF0FE4749025C
:102A8000267D521E401EA1F50071C2F308088AB2CD
:102A9000761E0CEA004042EA08020243504607EA6A
:102AA00006610A431A60DAF8002022F00102CAF82F
:102AB0000020D9F80020266A22EA0B0242EAC60268
:102AC000C9F80020DAF80010A26921F00C011143C6
:102AD000CAF800100168E26921F0020111430160A7
:102AE000016841F480310160016841F4003101E086
:102AF00021E027E00160016841F480210160016864
:102B000041F001010160286840F080702860FEF704
:102B100047FC044605E000BFFEF742FC001B02280C
:102B200009D828688001F7D557E000BFFEF738FCC8
:102B3000001B022802D90320BDE8F09F286880010D
:102B4000F4D44AE039680128D8F8000021D0A26AFC
:102B500001F0030393421CD1E26AC1F305118A42DA
:102B600017D1216BC0F30802491E8A4211D1616B53
:102B7000C0F34622491E91420BD1A16BC0F306421D
:102B8000491E914205D1E16BC0F30660491E8142A6
:102B900001D00120D0E7A16C4E46D9F80000C0F367
:102BA000CC00814219D0DAF80000554620F001002F
:102BB000CAF80000FEF7F4FB4FEA0007FEF7F0FB4F
:102BC000B842FBD0A26C306820EA0B0040EAC20099
:102BD0003060286840F0010028600020ACE7000069
:102BE000024A136883430B43136070470404005880
:102BF00004284FF0E020016903D021F004010161B5
:102C0000704741F00401FAE7401EB0F1807F10B533
:102C100001D3012010BD4FF0E02460610F21601747
:102C200002F022F90020A0610721216110BD30B51A
:102C300090F88410012918D0012280F884202421E2
:102C4000C0F888100022202401680B680D6823F06A
:102C5000005325F001050D60426601680B60C0F865
:102C6000884080F88420104630BD022030BD704777
:102C7000704770B5044690F8840001281DD00122E9
:102C800084F884202420C4F888002068056802683D
:102C900022F0010202602068826822F060620A432A
:102CA0008260204601F090F9226820210020156002
:102CB000C4F8881084F8840070BD022070BD70B51F
:102CC000044690F8840001281DD0012284F8842055
:102CD0002420C4F8880020680568026822F00102F8
:102CE00002602068826822F060420A4382602046C7
:102CF00001F06AF92268202100201560C4F88810CC
:102D000084F8840070BD022070BD70477047704722
:102D10000146D0F88800D1F88C10084370470000B5
:102D20002DE9F04107680025044640F60F0302260E
:102D3000F8693968BA6818420AD183067ED501F06D
:102D4000200302F0805C53EA0C0377D0616F7EE1D0
:102D5000D44BDFF854C3134001EA0C0C53EA0C0CBB
:102D60006CD05FEAC07C0CD05FEAC15C09D54FF043
:102D7000010CC7F820C0D4F8907047F00107C4F8E0
:102D80009070870709D5D70707D027683E62D4F827
:102D9000906046F00406C4F8906046070AD5D6074E
:102DA00008D0276804263E62D4F8906046F00206F8
:102DB000C4F8906006070CD501F020061E4308D029
:102DC000266808233362D4F8903043F00803C4F82F
:102DD000903003050BD54B0109D526684FF40063ED
:102DE0003362D4F8903043F02003C4F89030D4F824
:102DF0009030002B3DD0800609D501F0200002F074
:102E00008051084303D0616F09B12046884721688B
:102E1000D4F890008968490602D410F0280F2AD00F
:102E2000204601F0B5F92068806840061ED520686C
:102E3000083050E8001F21F0400100E021E040E8A8
:102E40000012002AF3D1D4F8800078B197490165C7
:102E5000D4F88000FDF7B4FF00280AD0D4F8800031
:102E6000016D00E02046BDE8F04108472046FFF72D
:102E70004EFFBDE8F0812046FFF749FFC4F89050AF
:102E8000F7E7D4F86CC02023BCF1010F7ED15FEAD4
:102E9000C06C7BD55FEAC16C78D5102038622068A1
:102EA0008068400673D5D4F8802081491068884234
:102EB00034D07F491831884230D07D493031884242
:102EC0002CD07B494831884228D0794960318842EA
:102ED00024D077497831884220D075499031884292
:102EE0001CD07349A831884218D07249884215D045
:102EF00070491831884211D06E49303188420DD066
:102F00006C494831884209D06A496031884205D00D
:102F100068497831884201D06649903140684FF461
:102F200080770004000C40D0B4F85C1081423CD99A
:102F3000A4F85E00D069B8422FD0216851E8000F94
:102F400020F4807041E80002002AF6D120680830A1
:102F500050E8001F21F0010140E80012002AF5D1DD
:102F60002068083050E8001F21F0400140E80012BE
:102F7000002AF5D1C4F88C30E566206850E8001FBF
:102F800021F0100140E80012002A01E04AE019E0B7
:102F9000F3D1D4F88000FDF763FD2667B4F85C0038
:102FA000B4F85E10401A81B208E0B4F85C108142B7
:102FB0007FF466AFD069B842FAD126672046FFF7A2
:102FC00056FE56E7B4F85C00B4F85E10B4F85E2024
:102FD000401A81B2002AF4D00029F2D0226852E8C7
:102FE000000F20F4907042E80007002FF6D1324F16
:102FF000206800F1080050E8002F02EA070240E8CC
:10300000002CBCF1000FF3D1C4F88C30E566656785
:10301000226852E8000F20F0100042E80003002B65
:10302000F6D1CAE7C60209D5560207D54FF480107B
:1030300038622046BDE8F041FFF768BE06060AD5B3
:1030400001F0800602F40002164304D0A16F0029AB
:103050007FF408AF0DE7420611D54A060FD520468A
:10306000016851E8002F22F0400241E80024002CC2
:10307000F6D1C0F88830856700F0A6F9F9E60202BB
:1030800006D54A0004D52046BDE8F041FFF73DBE15
:10309000C00196D5002994DA2046BDE8F041FFF73B
:1030A000E7BD000001000010200100047F4100087E
:1030B0001000024010040240FEFFFFEF10B50400B4
:1030C00003D0D4F8880010B107E0012010BD002023
:1030D00084F88400204600F027F82420C4F88800F3
:1030E0002068016821F001010160A06A10B120464A
:1030F00000F08CFF204601F0DDFA0128E6D02068C0
:10310000416821F4904141602068816821F02A01E2
:1031100081602068016841F0010101602046BDE83E
:10312000104000F0D7BF00002DE9F041B6B00446D2
:10313000142130A8FDF708F9C0216846FDF704F90D
:10314000364E022737492068083E344D0024DFF808
:10315000D08088422DD100201E940221CDE900109C
:103160006846FEF795FB08B1FDF76AFC286840F455
:1031700000202860286800F400203590306840F076
:10318000020030603068082100F0020035904FF4F2
:1031900040703090CDE93174CDE9334130A94046DB
:1031A000FDF7D0FF002204213420FEF7BFF93420C0
:1031B0002FE01D4988422ED100201E940221CDE926
:1031C00000106846FEF764FB08B1FDF739FC28687B
:1031D00040F480102860286800F480103590306832
:1031E00040F00200306030680E2100F0020035909F
:1031F0004FF440503090CDE93174CDE9334130A9DE
:103200004046FDF79FFF002205213520FEF78EF98D
:103210003520FEF77DF936B0BDE8F081E84402586C
:1032200000040258004C00400050004030B4D0F878
:103230008C30202B02D0022030BC7047A9B1A2B143
:103240000B4D00240368C466AB420BD05B681B02C5
:1032500008D5046854E8003F43F0806344E8003533
:10326000002DF6D130BC01F0FBBB0120E4E70000EB
:10327000000C0058F0B5234C0022036840F2DB55E7
:103280002149A34217D18C88230414D44B1C660413
:103290001B7804D50A2B0DD144F400431DE00D2BFF
:1032A00019D0671CC4F30D06BCB2184FAC42BB5515
:1032B0008C8000D98A800068154B98420AD1C88852
:1032C000030407D4104B9B1C44041B780AD50A2B1B
:1032D00005D0CA80F0BD44F480438B80EBE740F416
:1032E00000400DE00D2B09D0461CC0F30D04B0B218
:1032F000084EA8423355C880EBD8F0BD40F480405A
:10330000C880F0BD004C0040200000248001002453
:10331000005000405C0700242DE9F8430446D0F833
:103320008800984616460D46202802D00220BDE8A7
:10333000F883A5B19EB10021C4F890102120C4F8F3
:1033400088001834FEF72CF8814654F8100CA68734
:10335000E6872027183CB0F5805F02D003E001200B
:10336000E5E7206910B12E46002510E000260EE0AA
:103370008021204601F0FCFBC0B9DEB116F8010B3C
:1033800021688862B4F85600401EA4F85600B4F8CC
:1033900056004B464FF00002CDF800800028E7D1E0
:1033A0004FF04001204601F0E3FB48B1C4F88870BB
:1033B0000320BCE735F8020B2168C0F30800E0E702
:1033C000C4F888700020B2E77047FEE770B5134C70
:1033D0004FF48045002229462046FDF7D6FF20689D
:1033E00020F040402060206840F0804020600022B3
:1033F00020466900FDF7C9FF012002F0D1F9012242
:1034000029462046FDF7C1FF012002F0C9F92946EF
:103410002046BDE870400022FDF7B7BF0008025803
:1034200070B5134C4FF48045002229462046FDF725
:10343000ACFF206820F040402060206840F08040D1
:10344000206001222046D103FDF79FFF012002F0FA
:10345000A7F9012229462046FDF797FF012002F037
:103460009FF929462046BDE870400022FDF78DBF38
:10347000000802582DE9F0471A4C80464FF4804767
:10348000206800254FF400492E4620F0404020607F
:1034900020682060002239462046FDF776FF012093
:1034A00002F07EF9012239462046FDF76EFF6806DC
:1034B0004946050E2046FDF75BFF08B16D1CEDB2D5
:1034C000012002F06DF9761CF6B2082EE2D3B8F1B5
:1034D000000F04D0FFF77AFF2846BDE8F087FFF71A
:1034E0009FFFF9E7000802582DE9F0411A4C064603
:1034F0002046216821F040412160216841F080414F
:1035000021604FF4804700223946FDF73EFF002539
:103510004FF40048300601D5012200E00022414668
:103520002046FDF732FF700639460122060E20467E
:10353000FDF72BFF012002F033F900223946204627
:10354000FDF723FF012002F02BF96D1CEDB2082DD1
:10355000E0D3BDE8F08100000008025870B5134CBC
:10356000206820F040402060206840F080402060CB
:1035700001222046D5032946FDF707FF01222046F8
:1035800096033146FDF701FF012002F009F9002200
:1035900029462046FDF7F9FE012002F001F93146E7
:1035A0002046BDE870400022FDF7EFBE000802583B
:1035B00070B5144C206820F040402060206840F036
:1035C000804020604FF48045204600222946FDF7C8
:1035D000DCFE6E00204600223146FDF7D6FE0120BB
:1035E00002F0DEF8012229462046FDF7CEFE01203A
:1035F00002F0D6F831462046BDE870400122FDF7C2
:10360000C4BE0000000802582DE9F041184C2068A3
:1036100020F04040206020680025206001222046E4
:10362000D6033146FDF7B1FE012002F0B9F80122C0
:10363000204697033946FDF7A8FE012002F0B0F8B6
:1036400008E06D1CEDB2FA2D04D9FFF7B1FF01209F
:10365000BDE8F08131462046FDF78AFE0028F0D112
:10366000002239462046FDF790FE0020F0E70000DA
:103670000008025810B50C4C002210212046FDF71E
:1036800084FE022002F06EF8012220461021FDF790
:103690007CFE042002F066F800222046BDE81040BF
:1036A0001021FDF772BE00000000025810B500F0B6
:1036B0002FF800F011F80123064A0321184601F003
:1036C000A3FA044A0123BDE81040121F0221084654
:1036D00001F09ABA3E00002410B50C4C00222021C3
:1036E0002046FDF752FE012002F03CF80122204660
:1036F0002021FDF74AFE1E2002F034F80022204669
:10370000BDE810402021FDF740BE00000000025837
:1037100010B50E4C012202212046FDF736FE002294
:1037200020460421FDF731FE002220460821FDF746
:103730002CFE002220461021FDF727FE0022204605
:10374000BDE810402021FDF720BE00000000025817
:10375000F0B587B014216846FCF7F6FD3F480168D4
:1037600041F010010160016801F01001059101684C
:1037700041F004010160016801F004010591016854
:1037800041F080010160016801F08001059101684C
:1037900041F001010160016801F00101059101683A
:1037A00041F002010160006800222D4E4CF2C00180
:1037B00000F0020005903046FDF7E7FD294F00229A
:1037C0003E213846FDF7E1FD4FF404156946082017
:1037D00000240294CDE900052348FDF7B3FC4FF423
:1037E00040506946CDE9000530460294FDF7AAFC39
:1037F000012569464FF440400090CDE90154304620
:103800000394FDF79FFC03213E20CDE90005CDE99F
:10381000024169463846FDF795FC0221C020CDE9FA
:103820000005CDE9024169463046FDF78BFC0021D9
:103830006806FFF7D5F900220E210920FDF776FE74
:103840000920FDF765FE00220E212820FDF76EFEFF
:103850002820FDF75DFE07B0F0BD0000E0440258EF
:1038600000080258000002580010025818480021B1
:1038700010B5164C0C224FF4E1330460C0E901315D
:10388000C160C0E904128161C1610162416281626B
:10389000FFF714FC08B1FDF7D3F80D480021FFF73E
:1038A0000EFA08B1FDF7CCF809480021FFF7E1F95D
:1038B00008B1FDF7C5F80648FFF7B9F9002803D0AD
:1038C000BDE81040FDF7BCB810BD0000004C004042
:1038D000580000241848002110B5164C0C224FF453
:1038E000E1330460C0E90131C160C0E904128161C3
:1038F000C161016241628162FFF7E0FB08B1FDF73F
:103900009FF80D480021FFF7DAF908B1FDF798F8A4
:1039100009480021FFF7ADF908B1FDF791F8064815
:10392000FFF785F9002803D0BDE81040FDF788B8FF
:1039300010BD000000500040EC000024FEE7FEE750
:10394000704700002DE9F047454D044689464FF089
:10395000000A2868C04380070AD0414E283E3068DC
:1039600020F080603060FDF71BFD0746B04608E0A0
:103970000120BDE8F08700BFFDF712FDC01B022843
:1039800067D8D8F800000001F6D4206829684FF401
:10399000FE0721F47C313E0241EA00302860207AA3
:1039A000A389B4F804C040022D4D2D495B1E227C32
:1039B000ACF1010C1035091DA0F5007080B2521E4B
:1039C000CCF3080C07EA034340EA0C00184306EA6C
:1039D0000262104328600868626920F0C00010434A
:1039E00008600A68A06922F0200202430A60281DCC
:1039F0000A6822F010020A6002684FF6F873E46960
:103A00009A4342EAC40202600868B9F1000F40F02C
:103A100010020A6011D00868B9F1010F11D040F40A
:103A200000100860D8F80000444640F08060C8F8F4
:103A30000000FDF7B5FC05460DE0086840F40020E5
:103A4000EFE740F48010ECE7FDF7AAFC401B0228EA
:103A500001D903208DE720680001F5D5504688E79D
:103A6000284402582DE9F047454D044689464FF059
:103A7000000A2868C04380070AD0414E283E3068BB
:103A800020F080503060FDF78BFC0746B04608E020
:103A90000120BDE8F08700BFFDF782FCC01B0228B3
:103AA00067D8D8F800008000F6D4208829684FF441
:103AB000FE0721F07C713E0241EA00502860207A26
:103AC000A389B4F804C040022D4D2D495B1E227C11
:103AD000ACF1010C1835091DA0F5007080B2521E22
:103AE000CCF3080C07EA034340EA0C00184306EA4B
:103AF0000262104328600868626920F44060104345
:103B000008600A68A06922F4007202430A60281D56
:103B10000A6822F480720A6002684FF6F873E4695A
:103B20009A4342EAC40202600868B9F1000F40F407
:103B300080720A6011D00868B9F1010F11D040F00D
:103B400080700860D8F80000444640F08050C8F803
:103B50000000FDF725FC05460DE0086840F48000F4
:103B6000EFE740F40000ECE7FDF71AFC401B0228E9
:103B700001D903208DE720688000F5D5504688E7FD
:103B800028440258704700002DE9F041254C012AD5
:103B90000E46074625D1E16823A000F0E3F8E1686E
:103BA00026A000F0DFF8002505E0785DE16800F070
:103BB000BBF86D1CADB2B542F7D3E16823A000F0AD
:103BC000D1F8E168FF2000F0AFF8E168FF2000F0D5
:103BD000ABF8E168FF2000F0A7F8E1681CA000F056
:103BE000C1F8216915A000F0BDF8002505E0785D59
:103BF000216900F099F86D1CADB2B542F7D3216987
:103C000012A000F0AFF82169FF2000F08DF82169C3
:103C1000FF2000F089F82169FF20BDE8F04100F0A5
:103C200083B80000200000240D0A53656E742074D0
:103C30006F2073637265656E3A0D0A007265637674
:103C40005F7478742E7478743D22000022000000A6
:103C50000D0A000070B51D4C012906461DD1E16812
:103C60001BA000F07FF8002504E000BF00F05CF826
:103C70006D1CADB2E168705D0028F7D1FF2000F047
:103C800053F8E168FF2000F04FF8E168FF2000F0F2
:103C90004BF8E16813A000F065F8002504E000BFD0
:103CA00000F042F86D1CADB22169705D0028F7D1BB
:103CB000FF2000F039F82169FF2000F035F8216974
:103CC000FF20BDE8704000F02FB800002000002465
:103CD0000D0A53656E7420746F2073637265656E90
:103CE0003A0D0A000D0A000070B500240D46064684
:103CF00004E0305D00F006F8641CA4B2AC42F8D3D6
:103D000070BD000010B5074C0A2301222146207027
:103D1000E068FFF701FBE0680068C169C943490634
:103D2000FBD410BD2000002410B50C4606490A2320
:103D3000012208702046FFF7EFFA2068C169C943E5
:103D40004906FBD410BD00002000002470B50024FB
:103D5000054603E0FFF7D6FF641CA4B2285D0028E7
:103D6000F8D170BD70B500240E46054604E031461A
:103D7000FFF7DAFF641CA4B2285D0028F7D170BDFC
:103D80000FB400B599B01BAA68461A9901F05AF809
:103D90006846FFF7DBFF19B05DF814FBFDF706BBC3
:103DA00070B59CB04C216846FCF7CEFA202113A8D0
:103DB000FCF7CAFA0220FDF7EBFB21480024214959
:103DC000026842F44042026002680A6842F001025E
:103DD0000A60096801F001011B9101688904FCD5A2
:103DE0000DF1280C022009900521C0228CE8070063
:103DF000C6030F9008250D9001230E90CDE91054B5
:103E0000CDE9003668461294FEF728FC08B172B678
:103E1000FEE740201A903F210301CDE9165003220E
:103E2000CDE9180313AB13A883E816000421FEF7AD
:103E300005FA002801D072B6FEE71CB070BD000084
:103E4000184802582C0400583348F0B5334A01682A
:103E500041F470010160106800F00F00072804D2DF
:103E6000106820F00F00C01D10602D4900202C4C60
:103E700010340B682B4D43F001030B6020600B687E
:103E80002B400B60136803F00F03072B04D9136852
:103E900023F00F03DB1D1360214C234A1834234BFE
:103EA000261D371D20601E4C214D28343060261DF4
:103EB0003860371D23603B1D35601C1D3A60251D91
:103EC0002E1D1860331D22602860326018600A6859
:103ED000134B184C22F4802260330A60186020686B
:103EE0006FF30F00B0F1005F03D213490120C1F856
:103EF00008010B48D4300168C9040BD4026843F2AE
:103F0000D2010E4B42F4805202601960016821F424
:103F100080510160F0BD000088ED00E000200052FB
:103F2000004402587FEDF6EA80020101000202021D
:103F30000000FF010010005C0080005100400052B2
:103F400070B50E4C00250E4EE068FEF7E9FE02E06B
:103F50006D1CB54204D8E068FEF7DAFE2028F7D1E0
:103F6000002502E06D1CB54207D804490122E06833
:103F7000491CFFF75BF90028F4D170BD2000002434
:103F8000FFFF010070B50E4C00250E4E2069FEF7B4
:103F9000C7FE02E06D1CB54204D82069FEF7B8FEEA
:103FA0002028F7D1002502E06D1CB54207D804494E
:103FB00001222069891CFFF739F90028F4D170BD6E
:103FC00020000024FFFF010030B5416EB9B1016847
:103FD0000D4B03F108048A688968C2F34262490FF5
:103FE0005D5C615C2D01B5FBF1F1A0F86A10995C94
:103FF000A25C0901B1FBF2F1A0F8681030BD01210B
:10400000A0F86A10F8E700000C5A000890F8281091
:10401000090706D50168836B4A6822F400421A43F7
:104020004A6090F82810C90706D00168C36A4A6838
:1040300022F400321A434A6090F82810890706D506
:104040000168036B4A6822F480321A434A6090F890
:104050002810490706D50168436B4A6822F480227C
:104060001A434A6090F82810C90606D50168C36B48
:104070008A6822F480521A438A6090F828108906D0
:1040800006D50168036C8A6822F400521A438A60DC
:1040900090F82810490611D50168436C4A6822F44B
:1040A00080121A434A60416CB1F5801F06D1016845
:1040B000836C4A6822F4C0021A434A6090F82810C0
:1040C000090606D50168C26C486820F40020104338
:1040D000486070472DE9F84300250446C0F8905029
:1040E000FDF75EF98046206820266FF07E47006865
:1040F000000713D50022434631042046009700F004
:1041000037FD58B1216851E8000F20F0800041E8E8
:104110000002002AF6D1C4F8886021E02068006817
:10412000400722D5002243464FF4800120460097E5
:1041300000F01EFDC8B1206850E8001F21F4907106
:1041400040E80012002AF6D12068083050E8001F2D
:1041500021F0010140E80012002AF5D1C4F88C607A
:10416000032084F88450BDE8F883C4F88860C4F85C
:104170008C60E5662567002084F88450F3E710B56D
:10418000806B0021A0F85E10FEF7C1FD10BD00009D
:1041900010B5026852E8001F21F4907142E8001344
:1041A000002BF6D10E4B0268083252E8001F19406E
:1041B00042E80014002CF6D1C16E012908D1026832
:1041C00052E8001F21F0100142E80013002BF6D145
:1041D00000212022C0F88C20C166416710BD00007C
:1041E000FEFFFFEF10B5D0F88C10B0F86020222948
:1041F000016804D0886940F00800886110BD496AF0
:10420000836D11401980816D891C8165B0F85E1045
:10421000491EA0F85E10B0F85E100029EED10168CA
:1042200051E8002F22F4907241E80023002BF6D1D0
:104230000168083151E8002F22F0010241E8002313
:10424000002BF5D1184B002102682024C0F88C40C7
:10425000416701679A420BD05268120208D5036881
:1042600053E8002F22F0806243E80024002CF6D1AE
:10427000C26E012A02D0FEF7FDFF10BDC1660268C2
:1042800052E8001F21F0100142E80013002BF6D184
:104290000168CA69D243D20601D410220A62B0F87A
:1042A0005C10FEF7E4FC10BD000C00582DE9F0474F
:1042B00004460068C569D0F800A0D0F80890D4F88A
:1042C0008C10B4F86060222905D0816941F00801A2
:1042D0008161BDE8F087B4F868704FF0000844E0F1
:1042E0002068A16D406A30400880A06D801CA065E8
:1042F000B4F85E00401EA4F85E002068C569690736
:1043000030D0E9070AD05FEACA5107D5012101621E
:10431000D4F8900040F00100C4F89000A8070BD535
:104320005FEAC97008D0216802200862D4F89000C2
:1043300040F00400C4F8900068070BD55FEAC9702C
:1043400008D0216804200862D4F8900040F00200F0
:10435000C4F89000D4F8900020B12046FEF7D7FCB6
:10436000C4F89080B4F85E0000B30FB1A806B7D4CB
:10437000B4F85E000028ACD0B4F868108142A8D927
:104380002068083050E8001F21F0805140E80012FA
:10439000002AF5D12A486067216851E8000F40F0F3
:1043A000200041E80002002AF6D192E7216851E896
:1043B000000F20F4807041E80002002AF6D1214A63
:1043C0002068083050E8001F114040E80013002B1F
:1043D000F6D11D4A202321684046C4F88C30C4F829
:1043E0007480C4F8708091420BD04968090208D5E6
:1043F000226852E8001F21F0806142E80013002B80
:10440000F6D1E16E012903D02046FEF733FFAFE776
:10441000E066216851E8000F20F0100041E800023A
:10442000002AF6D12068C169C943C90601D4102108
:104430000162B4F85C102046FEF719FC98E7000012
:10444000E5410008FEFFFFEF000C005810B5D0F862
:104450008C10B0F860202229016804D0886940F0EF
:104460000800886110BD496A836D11401970816D23
:10447000491C8165B0F85E10491EA0F85E10B0F8C6
:104480005E100029EED1026852E8001F21F49071FD
:1044900042E80013002BF6D10168083151E8002FE3
:1044A00022F0010241E80023002BF5D1184B002136
:1044B00002682024C0F88C40416701679A420BD003
:1044C0005268120208D5026852E8003F23F0806368
:1044D00042E80034002CF6D1C26E012A02D0FEF769
:1044E000C9FE10BDC166026852E8001F21F010012C
:1044F00042E80013002BF6D10168CA69D243D20604
:1045000001D410220A62B0F85C10FEF7B0FB10BDB7
:10451000000C00582DE9F04704460068C569D0F842
:1045200000A0D0F80890D4F88C10B4F8606022296C
:1045300005D0816941F008018161BDE8F087B4F8D8
:1045400068704FF0000844E02068A16D406A304078
:104550000870A06D401CA065B4F85E00401EA4F871
:104560005E002068C569690730D0E9070AD05FEAB4
:10457000CA5107D501210162D4F8900040F0010032
:10458000C4F89000A8070BD55FEAC97008D021686D
:1045900002200862D4F8900040F00400C4F89000B3
:1045A00068070BD55FEAC97008D02168042008624B
:1045B000D4F8900040F00200C4F89000D4F89000C5
:1045C00020B12046FEF7A3FBC4F89080B4F85E004B
:1045D00000B30FB1A806B7D4B4F85E000028ACD081
:1045E000B4F868108142A8D92068083050E8001F4C
:1045F00021F0805140E80012002AF5D12A48606776
:10460000206850E8001F41F0200140E80012002A15
:10461000F6D192E7216851E8000F20F4807041E85C
:104620000002002AF6D1214A2068083050E8001F15
:10463000114040E80013002BF6D11D4A20232168C9
:104640004046C4F88C30C4F87480C4F8708091423D
:104650000BD04968090208D5226852E8001F21F0F2
:10466000806142E80013002BF6D1E16E012903D0EE
:104670002046FEF7FFFDAFE7E066206850E8001F28
:1046800021F0100140E80012002AF6D12068C1692B
:10469000C943C90601D410210162B4F85C10204658
:1046A000FEF7E5FA98E700004D440008FEFFFFEF33
:1046B000000C00582DE9F04304468068D84E87B0BE
:1046C000D84B2168D4E90427D4F81CC010430A68E9
:1046D000002547EA0C073843324002430A6020684D
:1046E000E268416821F44051114341602268A169A8
:1046F0009A4201D0206A01439768DFF82CC3CB4E61
:10470000CB4807EA0C070F4397602168676ACA6ABB
:1047100022F00F023A43CA622268B2420ED1006808
:1047200000F03800182873D047DCB8B3082879D0D7
:1047300010286FD178E028287ED17BE0BD498A42DD
:1047400009D1006800F00700062875D2DFE800F004
:10475000546A6C6E7072B8498A4209D1006800F0E0
:104760000700062868D2DFE800F0475D5F616365F7
:10477000B2498A4209D1006800F0070006285BD2DE
:10478000DFE800F03A5052545658AD498A420BD1F6
:10479000006800F0070006284ED200E010E0DFE8D5
:1047A00000F02B4143454749A6498A420AD1006897
:1047B00000F03800182839D0B7DD2028BBD13CE004
:1047C00001203AE0A0498A4209D1006800F00700C0
:1047D000062831D2DFE800F01026282A2C2E9B492B
:1047E0008A420BD1006800F00700062824D2DFE8D7
:1047F00000F003191B1D1F2100201EE09A421BD14F
:104800008B48001D006800F00700062814D202E063
:104810000CE007E010E0DFE800F0030507090B0DEE
:1048200002200AE0042008E0082006E0102004E04E
:10483000202002E0402000E080208549DFF814823B
:104840009A42854A4FF400434FEA21174FF0000681
:104850004ED110281AD006DC022809D004280BD02B
:1048600008287CD10DE020283ED0402877D13DE0BB
:10487000FCF7B8FE014610E06846FCF7C5FE01995A
:104880000BE003A8FCF762FF049906E010688006BD
:1048900005D51068C0F3C100C140002970D0606A1E
:1048A000676838F8102007EB4703B1FBF2F083424A
:1048B00055D8B0EB073F52D8002308461946FBF7FE
:1048C0000BFD02467808130E120243EA012110186C
:1048D0003A4671410023FBF7FFFC604AA0F54071A6
:1048E00091423CD821688FE03946D8E71946D6E78F
:1048F000D4F81CC04FF6EF799C4546D1082819D052
:1049000005DC58B101280CD0042875D10DE0102821
:1049100015D0202835D040286ED134E0FDF7DEFDDB
:1049200001E0FDF7EDFD014610E06846FCF76CFE86
:1049300001990BE003A8FCF709FF049906E0106851
:10494000800604D51068C0F3C100C140C1B1636ADC
:10495000606838F81330B1FBF3F1490000E04BE038
:1049600001EB5001B1FBF0F0A0F11001494543D833
:104970004FF6F0732168C0F342021840104343E041
:1049800043E03946E3E71946E1E7082819D005DC9A
:1049900058B101280CD004282ED10DE0102815D0D4
:1049A00020282BD0402827D12AE0FDF797FD01E0F1
:1049B000FDF7A6FD014610E06846FCF725FE0199CB
:1049C0000BE003A8FCF7C2FE049906E0106880061D
:1049D00004D51068C0F3C100C140B1B1636A60681A
:1049E00038F81330B1FBF3F101EB5001B1FBF0F0FB
:1049F000A0F11001494505D9012506E03946EDE74A
:104A00001946EBE7216880B2C8600120A4F86A006B
:104A1000A4F8680028466667A66707B0BDE8F0837B
:104A2000F369FFCF000C0058FFF4FF1100100140A4
:104A3000544402580044004000480040004C0040EC
:104A4000005000400014014000780040007C00400D
:104A50000090D003F459000800440258FFFC0F00F6
:104A600070B58368002481654FF48056A0F85C20FF
:104A7000B342A0F85E204FF0FF01446704D1036900
:104A800003BB40F2FF111DE04FF07F05C3B1B3F14E
:104A9000805F1AD0A0F860402221C0F89040C0F892
:104AA0008C100168083151E8003F43F0010341E8F0
:104AB0000034002CF5D1416EB1F1005F0CD02FE035
:104AC000036933B9A0F86010E6E7016909B13F2135
:104AD000F8E7A0F86050DFE7B0F8681091421FD8FF
:104AE0008168B14201D10169B9B11D4902694167CB
:104AF00042B1026852E8001F41F4807142E800139D
:104B0000002BF6D10168083151E8002F42F08052A5
:104B100041E80023002BF5D120E012494167F1E77D
:104B20008168B14201D1016969B10F4902694167E8
:104B30005AB1016851E8002F42F4907241E8002315
:104B4000002BF6D10AE009494167026852E8001FCC
:104B500041F0200142E80013002BF6D1002070BD87
:104B600015450008AD4200084D440008E541000825
:104B70002DE9F047994617460D460446089E4FF02A
:104B8000000833E0701C31D0FCF70AFCA0EB0900F0
:104B9000B04218D8BEB120680168490726D5802DDB
:104BA00024D0402D22D0C169C94309070DD408255E
:104BB00005622046FFF7ECFAC4F89050012084F813
:104BC0008480BDE8F0870320FBE7C069C04300058F
:104BD0000CD421684FF4006008622046FFF7D8FA31
:104BE0002021C4F8901084F88480ECE72068C06924
:104BF00035EA000004D00020B842C3D00020E0E72E
:104C00000120F9E7FEE700002DE9F0472E4E0025D0
:104C10009A4691468846044602212A463046FCF7C9
:104C2000B4FB002230460421FCF7AFFB200601D57F
:104C3000012200E0002230460821FCF7A6FB0122F9
:104C400030460421FCF7A1FB60066D1C040EEDB29A
:104C5000082DE6D3002230460421FCF796FB002401
:104C6000374622E019F80460002500223846042166
:104C7000FCF78BFB300601D5012200E0002238460C
:104C80000821FCF782FB012238460421FCF77DFB5A
:104C900070066D1C060EEDB2082DE6D300223846D4
:104CA0000421FCF772FB641CE4B24445DAD3BAF188
:104CB000010F01D1FEF7DEFC3846BDE8F0470122C6
:104CC0000221FCF762BB00000000025838B5102436
:104CD0000A460023009344EA12218DF802208DF841
:104CE000011040B101280AD0022816D0032813D1A0
:104CF0000C4A012306E00B4A0123D21E02E0094AB6
:104D00000123921E01210020FFF77EFF01236A4646
:104D100003210620FFF778FF38BD024A0123521E07
:104D2000F0E700003900002400EE101A9FED181B78
:104D3000194AB8EE400B10B520EE010BBCEEC00BCB
:104D400010EE101A51704FEA1123137098B1012818
:104D500015D0022817D0032819D10023D21E012113
:104D60000020FFF751FF00230B4A0221BDE810404D
:104D70000520FFF749BF084A0023921FEFE7064AC4
:104D80000023521FEBE7044A0023121FE7E710BD80
:104D90001CD0D2156CC146403C00002400EE101A15
:104DA0009FED1D1B38B5B8EE400B0021009120EEA1
:104DB000010BBCEEC00B10EE101A8DF803104FEA79
:104DC00011228DF802204FEA11438DF801304FEA8D
:104DD00011648DF8004040B101280AD0022816D095
:104DE000032813D10E4A012306E00D4A0123D21EE7
:104DF00002E00B4A0123921E01210020FFF704FF6D
:104E000004216A4601230846FFF7FEFE38BD044A26
:104E10000123521EF0E7000095D626E80B2E214014
:104E2000390000240FB4054B10B503A9044A0298B9
:104E300000F0FCF810BC5DF814FB0000D55700082A
:104E40005400002437B514460846064B6A462146EE
:104E500000F0ECF804466946002000F07EFC204695
:104E60003EBD00005B570008090700284FEA1161AA
:104E700004DB00F1E02080F80014704700F00F0020
:104E800000F1E02080F8141D704702E008C8121FEE
:104E900008C1002AFAD170477047002001E001C123
:104EA000121F002AFBD170472DE9FF5F82B000215D
:104EB000DDE90430020DDDF840B0034318D044F6BC
:104EC0001050A2F2FF3242431514119801281FD04E
:104ED000A5EB0B00401C5FEA000A4FF000064E4FA6
:104EE000DFF83891B046504615D5CAF1000413E0FA
:104EF000119801244AA3012801D16FEA0B010298FD
:104F0000119AC0E90031C0E9024206B0BDE8F09F45
:104F1000CBF10000DFE704460021404A491842EB8C
:104F20000450CDE9001012E0E00707D032463B46BE
:104F300040464946FBF7EFFA8046894632463B46F3
:104F400010461946FBF7E7FA06460F466410002C98
:104F5000EAD1DDE90401DDE90023BAF1000F06DA48
:104F6000FBF7D9FA42464B46FBF7D5FA05E0FBF7CB
:104F700044FB42464B46FBF740FB04460E460022EC
:104F8000284BFBF7C1FB03D84FF0FF30014607E089
:104F90000022254B20463146FBF716FAFBF79CFB17
:104FA000102409E0002C0ADB0A220023FBF794F905
:104FB000039B30321A55641E50EA0102F2D1641C80
:104FC000039AC4F111031444119A012A03D0012257
:104FD00008430DD10AE0084304D000204FF0110B24
:104FE000119072E7A3EB0B056D1E0DE05B4504DD30
:104FF0004FF0000205F1010504E003DA4FF0000272
:10500000A5F10105002AECD002981199C0E90231FE
:10501000C0E9004579E70000000014400000F03FBF
:10502000300000000000F0430000E03F2DE9FF4F9A
:1050300095B09B468946064600250FE2252877D184
:1050400000242746F84A0121059400E0044316F89D
:10505000013F203B01FA03F01042F7D130782A28B3
:1050600011D06FF02F033078A0F13002092A16D842
:10507000059A44F0020402EB820203EB4202104460
:10508000761C0590EFE759F8042B0592002A03DA05
:10509000504244F40054059044F00204761C3078E9
:1050A0002E2816D116F8010F44F004042A280DD03A
:1050B0006FF02F023078A0F13003092B09D807EBED
:1050C000870302EB4303C718761CF3E759F8047B08
:1050D000761C30786C280FD006DC4C2817D0682856
:1050E0000DD06A2814D104E0742810D07A280FD18A
:1050F0000DE044F400140AE044F4801401E044F4A8
:1051000040147278824202D104F58014761C761C19
:10511000307866280BD013DC582877D009DC0028BB
:1051200075D04528F6D04628F4D047281AD19DE1FD
:1051300018E0632835D0642879D0652812D195E12C
:10514000702873D008DC6728F1D069286FD06E28EA
:105150000DD06F2806D1B5E073282CD0752875D0F6
:10516000782874D05A46179990476D1C75E1C4F39E
:105170000250022809D003280DD0D9F800100428C5
:105180000DD00D6009F1040967E1D9F80010EA17A4
:10519000C1E90052F6E7D9F800100D80F2E70D7072
:1051A000F0E719F8041B8DF8001000208DF80100BD
:1051B000EA46012003E059F804AB4FF0FF306107E5
:1051C0004FF0000102D40DE008F101018846B94218
:1051D0000FDA8045F8DB1AF808100029F4D108E04E
:1051E00008F1010188468142FADB1AF8081000290B
:1051F000F6D105985B46A0EB080721463846179A7A
:1052000000F094FA284400EB080507E04DE029E19E
:105210000DE01AF8010B5A4617999047B8F10108AA
:10522000F7D25B4621463846179A13E142E00A223C
:105230000092C4F302524FF0000A022A08D059F833
:1052400004CB032A4FEAEC710AD00DE029E02AE0F2
:1052500009F1070121F00702F2E802C1914609E0D5
:105260000FFA8CFC4FEAEC71042A03D14FFA8CFC44
:105270004FEAEC71002907DA0A460021DCF1000C44
:1052800061EB02012D2202E0220504D52B228DF8CC
:105290000420012203E0E20701D02022F7E7904634
:1052A00059E00A2102E010220DE010214FF0000A1F
:1052B00000910BE010224FF0000A44F0040408278C
:1052C000009203E008224FF0000A0092C4F3025259
:1052D000022A05D059F804CB0021032A08D009E09E
:1052E00009F1070121F00702F2E802C1914605E049
:1052F0001FFA8CFC042A01D10CF0FF0C4FF00008BF
:10530000220728D5702806D0009B83F0100353EAAB
:105310000A0305D00EE040228DF80420012208E0A7
:105320005CEA010206D030228DF804208DF80500D9
:1053300002229046009B83F0080353EA0A030AD135
:105340005CEA010201D1620705D530228DF8042004
:105350004FF001087F1E582804D034A003900EA8F7
:1053600002900DE036A0F9E753466046009AFAF73E
:10537000B3FF84460398825C0298401E029002703C
:105380005CEA0100F0D1029806A9081A00F1200A8F
:10539000600702D524F4803400E00127574502DD80
:1053A000A7EB0A0000E0002000EB0A01009005983E
:1053B0004144401A0590E00306D45B462146179A03
:1053C000059800F0B3F90544002706E001A85A4605
:1053D000C05D179990476D1C7F1C4745F6DBE003C5
:1053E0000CD55B462146179A059800F09FF90544B5
:1053F00004E030205A46179990476D1C0099481ECA
:1054000000900029F5DC08E0029802995A460078DD
:10541000491C0291179990476D1CBAF10001AAF13D
:10542000010AF1DC65E10000092801003031323366
:1054300034353637383961626364656600000000D0
:1054400030313233343536373839414243444546BA
:105450000000000000F058F90544761C3078002860
:105460007FF4ECAD19B02846BDE8F08F620700D498
:10547000062709F1070222F0070CFCE80223E146A7
:1054800003F000485FEA080C02D00FF2702C0DE028
:105490005FEA045C02D50FF2682C07E05FEAC47C87
:1054A00002D00FF2602C01E0AFF2700C4FF0FF3829
:1054B00023F00043CDF850C065280CD006DC452809
:1054C00009D046281DD047283DD13DE0662818D098
:1054D00067287ED138E00021112F01DB112000E088
:1054E000781CCDE9000106A90EA8FFF7DDFCDDE977
:1054F0000F010E9A03910021009207F1010A049115
:105500004DE04FF000400097CDE9011006A90EA82C
:10551000FFF7CAFCDDE90F0203920E9B11990022EE
:10552000DDF80CA00093049211B9791C00EB010A7C
:10553000B7EB0A0004D4C0F1FF3007F1010A049070
:10554000AAEB0700019044E0012F00DA01270021B7
:10555000112F01DD112000E03846CDE9000106A938
:105560000EA8FFF7A1FCDDE90F010E9A03910021BF
:1055700004910092BA4621070CD40399514500DAF0
:105580008A46BAF1010F05DD009AAAF10101515CCA
:10559000302908D0B84202DA10F1040F06DA0121EE
:1055A000CDE9011015E0AAF10101E9E7002805DCC9
:1055B000049901440491AAEB000102E0411C514509
:1055C00000DD8A460499401A401C01904FF00040CB
:1055D0000290200704D40198504501DBCDF80480E7
:1055E00000208DF84F0002980DF14F07B0F1004FE9
:1055F00025D02B200E9002984FF0020800280CDADC
:10560000404202902D200E9007E00A210298FAF7FE
:10561000A6FE3031029007F8011DB8F10001A8F193
:105620000108F2DC02980028EFD1791E0E9808706C
:10563000307800F0200040F0450007F8020D12A875
:10564000C01B00F107081498007800B1012000EB9E
:105650000A01019801EBE07105984144401A401E8F
:105660000590E00306D45B462146179A059800F0A2
:105670005DF805441498007818B15A461799904778
:105680006D1CE00324D55B462146179A059800F06F
:105690004DF805441CE00498002807DBDDE9030110
:1056A000884203DD0098405C179901E0179930208B
:1056B0005A469047049805F10105401C0490019852
:1056C000401E019004D12E205A46179990476D1C18
:1056D000BAF10001AAF1010ADDDC05E017F8010BBF
:1056E0005A46179990476D1CB8F10001A8F10108BE
:1056F000F4DC5B462146179A0598ABE62D000000C6
:105700002B000000200000002DE9F0410446002598
:105710001E461746880404D405E039462020B047C9
:105720006D1C641EF9D52846BDE8F0812DE9F041D5
:10573000044600251E469046C80301D5302700E0E8
:105740002027880404D505E041463846B0476D1C43
:10575000641EF9D52846BDE8F0810A68531C0B6029
:105760001070704700EB40008000401EFDD2704773
:1057700010B504460420FDF73BFA0148046010BD53
:105780004400002470B5002405464FF47A7603E007
:10579000304600F005F8641CAC42F9D370BD00003F
:1057A0000B49002270B54FF0E02409686569484351
:1057B000A369A1699942FCD002D2A3EB010302E0E4
:1057C000A5EB010633441A440B468242F1D370BD67
:1057D0004400002410B50446C0B2FEF793FA2046F8
:1057E00010BD00001FB5002400940194029403949E
:1057F000FBF760FE01208DF80C001F218DF80810CA
:1058000087228DF809208DF80D008DF8000068467C
:105810008DF80A408DF80E408DF8014001948DF806
:105820000B408DF80F40FBF717FE0420FBF750FEEE
:10583000FBF7C4FDFEF7B4FAFDF78AFFFEF716F892
:10584000FEF748F84FF4F070FFF792FF0A20FFF7D9
:1058500099FFFDF72BFF00231A4619461846FBF760
:1058600018F8204C00231A4619466068FAF7FBFF27
:105870000023A0681A461946FAF7DFFFFDF7FAFE83
:1058800019490020FFF78AFA002040F2FF31FFF7A4
:105890001DFA00210846FFF747FAFBF7A2F8217826
:1058A0000120FBF73FF861780220FBF73BF8A17875
:1058B0000320FBF737F8E1780420FBF733F80B48B7
:1058C00000680068016841F02001016008A0FEF74F
:1058D00057FA0CA0FEF754FA00F05EF800F02CF82E
:1058E000FAE700000000002480841E002C00002441
:1058F0000D0A49545F52584E4520454E41424C4591
:10590000440D0A000D0A3D3D3D3D3D3D3D3D3D3DC3
:105910003D494E495449414C495A4154494F4E2002
:10592000434F4D504C4554453D3D3D3D3D3D3D3D36
:105930003D3D0D0A0A00000010B50D4CE088010441
:1059400014D5C0F30D0020810AA0FEF719FA2189B1
:105950000E48FEF7C9F90EA0FEF712FA0D480068CE
:10596000C169C9434906FBD40020E08010BD000096
:10597000200000240D0A646174612066726F6D203E
:1059800073637265656E3A0D0A0000005C070024BF
:105990000D0A0000EC00002410B50F4CA088010493
:1059A00019D5C0F30D0020810CA0FEF7E9F921897B
:1059B0000E48FEF799F9218900220C48FEF7E4F819
:1059C00009A0FEF7DDF90A480068C169C943490624
:1059D000FBD40020A08010BD200000240D0A7365B8
:1059E0006E7420646174613A0D0A00008001002425
:1059F00058000024010002000400060008000A000C
:105A00000C00100020004000800000010101010393
:105A10000701000008040204080101010000000061
:105A20000102030401020304060708093F065B4F55
:105A3000666D7D077F6F777C395E79715C5A0008EF
:105A400000000024580000008A4E0008B45A0008E4
:105A500058000024E01000009A4E000802000205E1
:105A600080C3C901FF030000010000001000000016
:105A7000000000000090D0030090D0030000000060
:105A8000000000000000000058000024EC0000248A
:105A900000001020408020000000D0000000000026
:105AA00000000000000000000000000000000000F6
:045AB00000000000F2
:040000050800029954
:00000001FF
